:100000000C94B8010C944A020C94D5010C94D501BF
:100010000C94D5010C94D5010C94D5010C94D50108
:100020000C94D5010C94D5010C94D5010C94D501F8
:100030000C94D5010C94D5010C94D5010C94D501E8
:100040000C94D5010C94D5010C94D5010C94D501D8
:100050000C94D5010C94D5010C94D5010C94D501C8
:100060000C94D5010C94D5010C94D5010C94D501B8
:10007000000000000000000000065F5F06000000B6
:100080000007070007070000147F7F147F7F14001C
:10009000242E6B6B3A120000466630180C66620024
:1000A000307A4F5D377A48000407030000000000F3
:1000B000001C3E63410000000041633E1C00000044
:1000C000082A3E1C1C3E2A0808083E3E080800007C
:1000D00000A0E06000000000080808080808000010
:1000E00000006060000000006030180C0603010092
:1000F0003E7F594D7F3E000042427F7F40400000DE
:10010000627359496F660000226349497F360000D7
:10011000181C16137F7F1000276745457D390000A6
:100120003C7E4B4979300000036371190F070000D2
:10013000367F49497F360000064F49693F1E00005F
:1001400000006C6C0000000000A0EC6C00000000DF
:10015000081C366341000000141414141414000029
:10016000004163361C080000020351590F060000CD
:100170003E7F415D5D1F1E007C7E13137E7C000070
:10018000417F7F49497F36001C3E63414163220025
:10019000417F7F41637F1C00417F7F495D41630058
:1001A000417F7F491D0103001C3E63415173720072
:1001B0007F7F08087F7F000000417F7F41000000B3
:1001C000307040417F3F0100417F7F081C77630012
:1001D000417F7F41406070007F7F060C067F7F007B
:1001E0007F7F060C187F7F001C3E6341633E1C002E
:1001F000417F7F49090F06001E3F21717F5E00008D
:10020000417F7F19396F460026674D597B320000C8
:1002100003417F7F410300007F7F40407F7F0000DC
:100220001F3F60603F1F00007F7F3018307F7F00DE
:1002300063771C081C776300074F78784F0700002E
:100240006773594D47637100007F7F414100000093
:100250000103060C183060000041417F7F00000060
:10026000080C0603060C0800808080808080808057
:100270000000030704000000207454543C78400040
:10028000013F7F44447C3800387C44446C280000A3
:10029000307848493F7F4000387C54545C18000057
:1002A000487E7F490302000098BCA4A4F87C0400A7
:1002B000417F7F08047C780000447D7D4000000081
:1002C00040C484FD7D000000417F7F10386C4400F5
:1002D00000417F7F400000007C7C0C180C7C780083
:1002E0007C7C04047C780000387C44447C3800002A
:1002F00084FCF8A4243C1800183C24A4F8FC8400D6
:10030000447C78441C180000485C54547424000059
:1003100000043E7F442400003C7C40403C7C400084
:100320001C3C60603C1C00003C7C6030607C3C00FD
:10033000446C3810386C44009CBCA0A0FC7C0000CD
:100340004C64745C4C64000008083E774141000036
:1003500000000077770000004141773E0808000068
:1003600002030103020301001818187E3C18000064
:1003700011241FBECFEFD4E0DEBFCDBF12E0A0E05E
:10038000B1E0E2ECFBE102C005900D92AA35B107A5
:10039000D9F722E0AAE5B2E001C01D92AE36B2075D
:1003A000E1F70E94E9030C94DF0D0C94000081B387
:1003B000806281BB82E090E09BBD8ABD8FB5806486
:1003C0008FBD8EB581608EBD8EB588608EBD08955F
:1003D000CF93DF931F92CDB7DEB7AC01109200141C
:1003E00081E28A95F1F720E030E005C09091001499
:1003F00099832F5F3F4F42175307C4F789810F90AE
:10040000DF91CF910895CF92DF92EF92FF920F93F9
:100410001F93CF93DF93C82E7B01D42EC0E0D0E092
:100420000AC087010C0F1D1F8C2D90E00E94E8016F
:10043000F801808321968D2D90E08C179D078CF715
:10044000C701DF91CF911F910F91FF90EF90DF9047
:10045000CF9008958BB780648BBF85B7826085BFCE
:1004600008958AE592E00E94880520915A028CE561
:1004700092E09F938F931F922F938AE091E09F9336
:100480008F930E94DE0A0F900F900F900F900F90A5
:100490000F9008951F920F920FB60F9211242F9371
:1004A0003F934F935F936F937F938F939F93AF93FC
:1004B000BF93EF93FF930E943102FF91EF91BF91A1
:1004C000AF919F918F917F916F915F914F913F91EC
:1004D0002F910F900FBE0F901F901895EF92FF92E3
:1004E0000F931F93CF93DF938C017B0188E290E001
:1004F0000E949C08EC010097B1F0F80101900020E7
:10050000E9F73197E01BF10BB19778F4B8010E943D
:100510008C0AFAA2E9A21CA21BA21EA21DA21FA263
:100520008C2F9D2F04C09D2F02C080E090E0DF91B2
:10053000CF911F910F91FF90EF9008950F931F930C
:10054000CF93DF93FB0194A383A3009771F18B01F9
:10055000EC016FA1611107C082E090E00E949C084D
:100560009EA38DA30BC070E06F5F7F4F660F771F58
:100570008DA19EA10E94BD099EA38DA32DA13EA188
:1005800021153105A9F08FA1E82FF0E0EE0FFF1F34
:10059000E20FF31F11830083F801D4A3C3A38FA13B
:1005A0008F5F8FA380E090E005C08FEF9FEF02C0C8
:1005B0008FEF9FEFDF91CF911F910F910895CF9310
:1005C000DF9360E070E08DE291E00E946E02EC014A
:1005D00060E070E082E391E00E946E02BC01CE0117
:1005E0000E949E0260E070E08DE391E00E946E0246
:1005F000BC01CE010E949E0260E070E088E491E0C0
:100600000E946E02BC01CE010E949E0260E070E07A
:1006100081E591E00E946E02EDA1FEA1BC01848102
:1006200095810E949E0260E070E08BE591E00E945F
:100630006E02EDA1FEA1BC01848195810E949E0203
:10064000CE01DF91CF910895FF920F931F93CF9327
:10065000DF938C01F62E0E944106C0E0D0E01DC061
:1006600060E08C2F0E941E068F2D0F2C000C990B22
:10067000C817D90719F48FE70E945806D801959634
:10068000ED91FC919697CE01880F991FE80FF91F05
:10069000808191810E9477062196F80187A190E0E0
:1006A000C817D907ECF2DF91CF911F910F91FF90FE
:1006B0000895CF92DF92EF92FF921F93CF93DF9333
:1006C000CDB7DEB7182FCDB6DEB68DB79EB7811B7E
:1006D00091090FB6F8949EBF0FBE8DBF01967C01A5
:1006E000412FBC0181E00E940302612FC7010E94DB
:1006F000B806282F30E030930901209308010FB687
:10070000F894DEBE0FBECDBEDF91CF911F91FF905A
:10071000EF90DF90CF900895CF92DF92EF92FF920B
:100720001F93CF93DF93CDB7DEB7182FCDB6DEB6CC
:100730008DB79EB7811B91090FB6F8949EBF0FBE6F
:100740008DBF01967C01412FBC0181E00E94030214
:10075000612FC7010E94B806282F30E030930701AF
:10076000209306010FB6F894DEBE0FBECDBEDF911A
:10077000CF911F91FF90EF90DF90CF900895CF938E
:10078000C82F85E691E09F938F930E94DE0A8C2FFD
:100790000E9459038C2F0E948C03809107018F9334
:1007A000809106018F93809109018F9380910801B8
:1007B0008F9383E891E09F938F930E94DE0A8DB719
:1007C0009EB708960FB6F8949EBF0FBE8DBFCF910F
:1007D0000895CF93DF93CDB7DEB72A970FB6F8947D
:1007E000DEBF0FBECDBF8FEF9FE20197F1F700C0D4
:1007F00000006FE170E080E090E00E94A3060E949C
:10080000CE050E94D7010E9432050E942A027894E8
:1008100088EC0E94BF030E94D8058FEF9FE20197EA
:10082000F1F700C000000E9441068FEF9FE20197A0
:10083000F1F700C000000E94DF0260E00E94240384
:100840008B811F928F9380EA91E09F938F930E94F8
:10085000DE0A0F900F900F900F908FEF9FE201979D
:10086000F1F700C0000085E4898395E09A838B83CB
:10087000CE0101960E9469058FEF9FE20197F1F783
:1008800000C00000EACF88B38F7E88BB089588B38C
:10089000806188BB0895CF93C82F0E9443048C2F9A
:1008A0000E9490060E9447048C2FCF9108950E94C9
:1008B00047040E94430480EC0E94900683EF91E07D
:1008C0000197F1F700C000000E94470481E00895FD
:1008D000CF93C82F0E94430483E00E9490068C2F80
:1008E0000E9490060E949606C82F0E9447048C2FF3
:1008F000CF9108951F93CF93DF93182FD62FC42F36
:100900000E944304812F0E946804C823CD17A1F0E0
:100910001F928F931F92DF9384EB91E09F938F93AD
:100920000E94DE0A0E9447040F900F900F900F90D4
:100930000F900F9081E003C00E94470480E0DF9198
:10094000CF911F910895CF93DF93C82FD62F0E9488
:10095000430482E00E9490068C2F0E9490068D2F07
:100960000E9490060E9447044FEF6D2F8C2F0E942B
:100970007A04882349F08DEC91E09F938F930E9435
:10098000DE0A0F900F9081E0DF91CF9108950F93D1
:100990001F93CF93DF938C01FC018181893050F04C
:1009A00084EF91E09F938F930E94DE0A0F900F9047
:1009B00081E029C0F8016081F0E26F9FB00111244D
:1009C00082E30E94A304F8016081669566956695AE
:1009D00081E30E94A304F801618185E30E94A304DE
:1009E000C0E0D0E009C0F801EC0FFD1F62818C2F40
:1009F0008A5C0E94A3042196F801818190E0C817C7
:100A0000D9078CF380E0DF91CF911F910F9108956A
:100A10001F93CF93DF93C82FD62F142F0E94430428
:100A200085E00E9490068C2F0E949006812F0E94E4
:100A300090068D2F0E9490060E944704412F6D2F33
:100A40008C2F0E947A04882349F08DEC91E09F93CB
:100A50008F930E94DE0A0F900F9081E0DF91CF917B
:100A60001F9108950E9484060E94570440EE60E89A
:100A70008EE00E947A0460E085E30E94A30460E0B7
:100A800085E40E94A30460E085E50E94A30460E081
:100A900080E60E94A3046FEF80E70E94A30461E058
:100AA0008BE20E94A30440EE60E48FE00E94080500
:100AB00080E00895CF93C82F0E94430480EA0E94EB
:100AC00090060E949606C8230E9447048C2FCF915F
:100AD00008950F931F93CF938C0182E00E945A05D3
:100AE000C82F882351F081E292E09F938F930E9458
:100AF000DE0A0F900F90C1E006C0C8010E94C70433
:100B000081E80E944B048C2FCF911F910F91089583
:100B10000F931F93CF93DF938C0181E00E945A05BE
:100B200081110AC08EE392E09F938F930E94DE0AA8
:100B30000F900F9081E02DC082E60E94680420E2B1
:100B4000829FC0011124F80190818923808381E66E
:100B50000E946804869586958695F8019081892B78
:100B6000808385E60E946804F8018183C0E0D0E0BC
:100B700009C08C2F8A590E946804F801EC0FFD1FF0
:100B800082832196F801818190E0C817D9078CF300
:100B900080E0DF91CF911F910F91089585B7806814
:100BA00085BF80B7886080BF089580930010089546
:100BB0008EEA0E94D50581EA0E94D5058AED0E9441
:100BC000D50582E10E94D50588EC0E94D50588EA0A
:100BD0000E94D5058FE30E94D50585ED0E94D505BD
:100BE00080E80E94D50581E80E94D50580E50E9435
:100BF000D50589ED0E94D50581E20E94D50580E2E8
:100C00000E94D50582E00E94D5058BED0E94D50596
:100C100080E30E94D5058DEA0E94D50580E00E9400
:100C2000D50584EA0E94D50586EA0E94D5058FEA9B
:100C30000E94D5050895809300120895CF93C62F82
:100C400080550E94D5058C2F8F700E94D5058C2F62
:100C500082958F70805F0E94D505CF910895CF93C4
:100C6000DF9360E00E941E06C0E0D0E004C080E098
:100C70000E941B062196C038D105CCF3DF91CF919D
:100C80000895CF93DF9360E080E00E941E06C0E0ED
:100C9000D0E004C08C2F0E942F062196C830D105C9
:100CA000CCF360E080E00E941E06DF91CF910895B2
:100CB0001F93CF93DF9310EE180FC0E0D0E010C069
:100CC000E12FF0E0EE0FFF1FEE0FFF1FEE0FFF1FF3
:100CD000EC0FFD1FE059FF4F84910E941B062196E7
:100CE000C830D1056CF3DF91CF911F910895CF9358
:100CF000DF93EC0103C021960E9458068881811180
:100D0000FACFDF91CF91089587B3806187BB87B316
:100D1000806A87BB8DB18C7F8DB981E58DB90895CF
:100D2000F8948FB9779BFECF7894089585E50E945B
:100D300090068FB108955D9BFECF8CB908955F9B9F
:100D4000FECF8CB108950F931F93072F182F292FD3
:100D5000332700BD69B988E18AB986E880BD6FE9AB
:100D600076E08BE996E00E94930A1F910F91089517
:100D7000BF92CF92DF92EF92FF920F931F93CF9388
:100D8000DF938C01B62EC0E0D0E0C12CD12C7601CF
:100D900012C0F801EC0FFD1F608170E080E090E070
:100DA0000E9410089B01AC01C701B6010E94FA061F
:100DB0006B017C0121968B2D90E08C179D074CF7E1
:100DC0006B2D70E080E090E00E940E089B01AC016A
:100DD000C701B6010E9466070E94D807862FDF91DF
:100DE000CF911F910F91FF90EF90DF90CF90BF9028
:100DF00008955058BB27AA270E9411070C94620837
:100E00000E94540838F00E945B0820F039F49F3F9C
:100E100019F426F40C9451080EF4E095E7FB0C94B9
:100E20004B08E92F0E94730858F3BA17620773073B
:100E30008407950720F079F4A6F50C9495080EF434
:100E4000E0950B2EBA2FA02D0B01B90190010C01DA
:100E5000CA01A0011124FF27591B99F0593F50F4F2
:100E6000503E68F11A16F040A22F232F342F44274A
:100E7000585FF3CF469537952795A795F040539542
:100E8000C9F77EF41F16BA0B620B730B840BBAF012
:100E90009150A1F0FF0FBB1F661F771F881FC2F77D
:100EA0000EC0BA0F621F731F841F48F48795779591
:100EB0006795B795F7959E3F08F0B0CF9395880F4B
:100EC00008F09927EE0F9795879508950E947A0765
:100ED0000C9462080E945B0858F00E94540840F08D
:100EE00029F45F3F29F00C944B0851110C9496089B
:100EF0000C9451080E94730868F39923B1F35523A9
:100F000091F3951B550BBB27AA276217730784071C
:100F100038F09F5F5F4F220F331F441FAA1FA9F3B2
:100F200035D00E2E3AF0E0E832D091505040E695A0
:100F3000001CCAF72BD0FE2F29D0660F771F881F01
:100F4000BB1F261737074807AB07B0E809F0BB0BF4
:100F5000802DBF01FF2793585F4F3AF09E3F510508
:100F600078F00C944B080C9496085F3FE4F3983E9D
:100F7000D4F3869577956795B795F7959F5FC9F7F1
:100F8000880F911D9695879597F90895E1E0660F72
:100F9000771F881FBB1F621773078407BA0720F0EB
:100FA000621B730B840BBA0BEE1F88F7E095089554
:100FB0000E94DF076894B1110C94960808950E946E
:100FC0007B0888F09F5798F0B92F9927B751B0F058
:100FD000E1F0660F771F881F991F1AF0BA95C9F7BD
:100FE00014C0B13091F00E949508B1E008950C94BE
:100FF0009508672F782F8827B85F39F0B93FCCF371
:10100000869577956795B395D9F73EF49095809539
:10101000709561957F4F8F4F9F4F0895E89409C059
:1010200097FB3EF490958095709561957F4F8F4F1B
:101030009F4F9923A9F0F92F96E9BB279395F69531
:10104000879577956795B795F111F8CFFAF4BB0FAF
:1010500011F460FF1BC06F5F7F4F8F4F9F4F16C013
:10106000882311F096E911C0772321F09EE8872F9D
:10107000762F05C0662371F096E8862F70E060E059
:101080002AF09A95660F771F881FDAF7880F9695D2
:10109000879597F9089597F99F6780E870E060E079
:1010A00008959FEF80EC089500240A941616170601
:1010B00018060906089500240A9412161306140649
:1010C00005060895092E0394000C11F4882352F0AC
:1010D000BB0F40F4BF2B11F460FF04C06F5F7F4F64
:1010E0008F4F9F4F089557FD9058440F551F59F04B
:1010F0005F3F71F04795880F97FB991F61F09F3F05
:1011000079F087950895121613061406551FF2CF2D
:101110004695F1DF08C0161617061806991FF1CF7D
:1011200086957105610508940895E894BB276627A4
:101130007727CB0197F908950F931F93CF93DF93F0
:101140008230910510F482E090E0E0916602F09127
:10115000670220E030E0A0E0B0E0309719F1408174
:1011600051810281138148175907C8F084179507E8
:1011700069F4109731F012960C93129713961C9302
:1011800027C0009366021093670222C02115310523
:1011900019F04217530718F49A01BD01EF01DF015E
:1011A000F801DBCF21153105F9F0281B390B24306C
:1011B000310580F48A819B816115710521F0FB0165
:1011C0009383828304C09093670280936602FE013A
:1011D000329644C0FE01E20FF31F81939193225097
:1011E0003109398328833AC0209164023091650225
:1011F000232B41F4209102013091030130936502C9
:1012000020936402209100013091010121153105E4
:1012100041F42DB73EB74091040150910501241BC4
:10122000350BE0916402F0916502E217F307A0F438
:101230002E1B3F0B2817390778F0AC014E5F5F4F2C
:101240002417350748F04E0F5F1F509365024093F7
:1012500064028193919302C0E0E0F0E0CF01DF915E
:10126000CF911F910F910895CF93DF93009709F4C9
:1012700081C0FC01329713821282A0916602B09164
:101280006702109781F420813181820F931F209192
:101290006402309165022817390751F5F093650211
:1012A000E093640267C0ED0120E030E0CE17DF0775
:1012B00040F44A815B819E0141155105F1F0EA013C
:1012C000F5CFD383C28340815181840F951FC81706
:1012D000D90759F488819981840F951F02969183CB
:1012E00080838A819B81938382832115310529F430
:1012F000F0936702E09366023DC0E901FB83EA8355
:1013000049915991C40FD51FEC17FD0761F48081F5
:101310009181840F951F0296E901998388838281C8
:1013200093819B838A83E0E0F0E012968D919C91FB
:101330001397009719F0FD01DC01F7CF8D919C9177
:1013400011979D012E5F3F4F820F931F20916402E2
:10135000309165022817390769F4309729F4109203
:1013600067021092660202C013821282B093650275
:10137000A0936402DF91CF910895A0E0B0E0E3EC88
:10138000F9E00C94AC0DEC01009721F4CB010E9424
:101390009C08B4C0FC01E60FF71F9C0122503109E4
:1013A000E217F30708F4A8C0D9010D911C91119719
:1013B00006171707B0F00530110508F49BC0C801E7
:1013C00004978617970708F495C002501109061B69
:1013D000170B019311936D937C93CF010E943409F5
:1013E00089C05B01A01AB10A4C01800E911EA09128
:1013F0006602B0916702612C712CE12CF12C1097E0
:1014000009F446C08D919C911197A815B905B1F5C5
:101410006C0142E0C40ED11CCA14DB0478F14C010B
:101420008A189B08640142E0C40ED11C1296BC903D
:1014300012971396AC91B5E0CB16D10440F0B2826E
:10144000A38391828082D9016D937C9309C00E5F42
:101450001F4F800F911FF90191838083EB2DFA2F8D
:10146000E114F10431F0D7011396FC93EE93129737
:1014700041C0F0936702E09366023CC068167906AB
:1014800008F43C017D0112960D90BC91A02DB7CFC0
:10149000809164029091650288169906E1F46616BF
:1014A0007706C8F48091000190910101009741F402
:1014B0008DB79EB74091040150910501841B950B97
:1014C000E817F907C8F4F0936502E0936402F901A4
:1014D000718360830FC0CB010E949C087C01009740
:1014E00059F0A801BE010E94830ACE010E9434096E
:1014F000C70104C0CE0102C080E090E0CDB7DEB7E6
:10150000EEE00C94C80DFB01DC0102C001900D92CD
:1015100041505040D8F70895FB01DC0101900D9235
:101520000020E1F708950F931F93CF93DF93009767
:1015300031F46115710519F480E090E03AC08B0137
:10154000EC016EE070E081E090E00E94D50CFC01BF
:10155000892B91F380E883830115110571F01387BE
:10156000028781E883838091680290916902892BC8
:1015700021F4F0936902E09368022097C9F0D187C3
:10158000C08783818260838380916A0290916B021D
:10159000892B71F4F0936B02E0936A0280916C02E4
:1015A00090916D02892B21F4F0936D02E0936C020F
:1015B000CF01DF91CF911F910F910895A0E0B0E08E
:1015C000E4EEFAE00C94B80DAE014B5F5F4FFA0108
:1015D00061917191AF0180916A0290916B020E94BA
:1015E000F40AE2E00C94D40DABE0B0E0EAEFFAE0EC
:1015F0000C94A80D6C017B018A01FC0117821682F4
:10160000838181FFCCC1CE0101963C01F60193811B
:10161000F70193FD859193FF81917F01882309F460
:10162000BAC1853239F493FD859193FF81917F0191
:10163000853229F4B60190E00E940E0DE7CF912C7F
:10164000212C312CFFE1F315D8F08B3279F038F4EE
:10165000803279F08332A1F4232D20611DC08D32B8
:1016600061F0803369F4232D216016C0832D8260E0
:10167000382EE32DE4603E2E2AC0F32DF8601DC005
:1016800037FC2DC020ED280F2A3040F08E32B9F4FF
:1016900036FC81C1232D2064322E19C036FE06C0CF
:1016A0008AE0989E200D1124922E11C0EAE02E9E11
:1016B000200D1124222EF32DF0623F2E08C08C360F
:1016C00021F4832D8068382E02C0883641F4F7015A
:1016D00093FD859193FF81917F018111B3CF982F65
:1016E0009F7D9554933028F40C5F1F4F9FE399839F
:1016F0000DC0833631F0833771F0833509F059C05E
:1017000021C0F801808189830E5F1F4F8824839454
:10171000912C530113C02801F2E04F0E511CF80127
:10172000A080B18036FE03C0692D70E002C06FEF6B
:101730007FEFC5010E94030D4C018201F32DFF775D
:101740003F2E16C0280122E0420E511CF801A08055
:10175000B18036FE03C0692D70E002C06FEF7FEFED
:10176000C5010E94F10C4C01F32DF0683F2E82015F
:1017700033FC1BC0822D90E088169906B0F4B601A8
:1017800080E290E00E940E0D2A94F4CFF50137FC20
:10179000859137FE81915F01B60190E00E940E0DA8
:1017A00021102A9421E0821A91088114910471F782
:1017B000E8C0843611F0893641F5F80137FE07C0DC
:1017C00060817181828193810C5F1F4F08C06081AD
:1017D0007181072E000C880B990B0E5F1F4FF32DA4
:1017E000FF763F2E97FF09C0909580957095619583
:1017F0007F4F8F4F9F4FF0683F2E2AE030E0A301CC
:101800000E944A0D882E861845C0853731F4232D55
:101810002F7EB22E2AE030E025C0932D997FB92E7D
:101820008F36C1F018F4883579F0B5C0803719F0DB
:10183000883721F0B0C0E92FE061BE2EB4FE0DC0A4
:10184000FB2DF460BF2E09C034FE0AC0292F26608C
:10185000B22E06C028E030E005C020E130E002C032
:1018600020E132E0F801B7FE07C06081718182811A
:1018700093810C5F1F4F06C06081718180E090E012
:101880000E5F1F4FA3010E944A0D882E8618FB2D64
:10189000FF773F2E36FE0DC0232D2E7FA22E8914FA
:1018A00058F434FE0BC032FC09C0832D8E7EA82E66
:1018B00005C0B82CA32C03C0B82C01C0B92CA4FEC1
:1018C0000FC0FE01E80DF11D8081803321F49A2DB7
:1018D000997EA92E09C0A2FE06C0B394B39404C099
:1018E0008A2D867809F0B394A3FC11C0A0FE06C02F
:1018F000B21488F4280C922C9B180EC0B21460F419
:10190000B60180E290E00E940E0DB394F7CFB214BE
:1019100018F42B1802C0982C212CA4FE10C0B6017C
:1019200080E390E00E940E0DA2FE17C0A1FC03C050
:1019300088E790E002C088E590E0B6010CC08A2DEF
:10194000867859F0A1FE02C08BE201C080E2A7FCBC
:101950008DE2B60190E00E940E0D891438F4B601B4
:1019600080E390E00E940E0D9A94F7CF8A94F301E1
:10197000E80DF11D8081B60190E00E940E0D8110EE
:10198000F5CF222009F442CEB60180E290E00E9419
:101990000E0D2A94F6CFF6018681978102C08FEF53
:1019A0009FEF2B96E2E10C94C40D0F931F93CF93FE
:1019B000DF93869F8001879F100D969F100D112445
:1019C000C8010E949C08EC01009729F0A80160E082
:1019D00070E00E94FC0CCE01DF91CF911F910F911E
:1019E0000895FC010590615070400110D8F7809572
:1019F00090958E0F9F1F0895DC0101C06D9341509B
:101A00005040E0F70895FC016150704001900110D2
:101A1000D8F7809590958E0F9F1F08950F931F9371
:101A2000CF93DF93FB01238121FD03C08FEF9FEF55
:101A30002CC022FF16C04681578124813581421770
:101A4000530744F4A081B1819D012F5F3F4F318343
:101A500020838C93268137812F5F3F4F37832683E6
:101A600014C08B01EC01FB010084F185E02D099588
:101A7000892BE1F6D80116968D919C9117970196C6
:101A800017969C938E931697CE01DF91CF911F915D
:101A90000F910895FA01AA27283051F1203181F1E0
:101AA000E8946F936E7F6E5F7F4F8F4F9F4FAF4F66
:101AB000B1E03ED0B4E03CD0670F781F891F9A1F79
:101AC000A11D680F791F8A1F911DA11D6A0F711D2D
:101AD000811D911DA11D20D009F468943F912AE039
:101AE000269F11243019305D3193DEF6CF01089521
:101AF000462F4770405D4193B3E00FD0C9F7F6CF52
:101B0000462F4F70405D4A3318F0495D31FD405219
:101B1000419302D0A9F7EACFB4E0A69597958795AF
:101B200077956795BA95C9F700976105710508958E
:101B30009B01AC010A2E069457954795379527953A
:101B4000BA95C9F7620F731F841F951FA01D0895D2
:101B50002F923F924F925F926F927F928F929F92BD
:101B6000AF92BF92CF92DF92EF92FF920F931F93AB
:101B7000CF93DF93CDB7DEB7CA1BDB0B0FB6F8945C
:101B8000DEBF0FBECDBF09942A88398848885F849C
:101B90006E847D848C849B84AA84B984C884DF800D
:101BA000EE80FD800C811B81AA81B981CE0FD11DF1
:101BB0000FB6F894DEBF0FBECDBFED010895F894C7
:021BC000FFCF55
:101BC20000006E0220007F007F0043414E20496EDC
:101BD200746572727570743A202049443A202569FE
:101BE20020444154413A202573200A0D00526F6F60
:101BF200740053746172742047616D6500486967AF
:101C0200682053636F72650053657474696E6773FD
:101C12000043616C69627261746500446562756754
:101C220067696E670043616C6962726174696E67AD
:101C3200204A6F79737469636B2063656E74657291
:101C42000A0D00582043656E7465723A2025690AB0
:101C52000D592043656E7465723A2025690A0D009C
:101C620043414E205472616E736D69743A20256946
:101C7200200A0D0045787065637465643A20257505
:101C82002C20526561643A2025750A0D0045525296
:101C92003A20556E65787065637465642076616C70
:101CA2007565207768656E20766572696679696EFA
:101CB200670A0D004572723A20546F6F206C6F6E86
:101CC200672064617461206C656E6774682C2052B1
:101CD20054522069732064697361626C65640A0DF1
:101CE200004572723A2054583020526571756573FE
:101CF2007420466C616720736574200A0D0045727A
:101D0200723A205265636569766520666C61672068
:0A1D12006E6F74207365740A0D00F3
:00000001FF
