:100000000C94B8010C9440020C94D5010C94D501C9
:100010000C94D5010C94D5010C94D5010C94D50108
:100020000C94D5010C94D5010C94D5010C94D501F8
:100030000C94D5010C94D5010C94D5010C94D501E8
:100040000C94D5010C94D5010C94D5010C94D501D8
:100050000C94D5010C94D5010C94D5010C94D501C8
:100060000C94D5010C94D5010C94D5010C94D501B8
:10007000000000000000000000065F5F06000000B6
:100080000007070007070000147F7F147F7F14001C
:10009000242E6B6B3A120000466630180C66620024
:1000A000307A4F5D377A48000407030000000000F3
:1000B000001C3E63410000000041633E1C00000044
:1000C000082A3E1C1C3E2A0808083E3E080800007C
:1000D00000A0E06000000000080808080808000010
:1000E00000006060000000006030180C0603010092
:1000F0003E7F594D7F3E000042427F7F40400000DE
:10010000627359496F660000226349497F360000D7
:10011000181C16137F7F1000276745457D390000A6
:100120003C7E4B4979300000036371190F070000D2
:10013000367F49497F360000064F49693F1E00005F
:1001400000006C6C0000000000A0EC6C00000000DF
:10015000081C366341000000141414141414000029
:10016000004163361C080000020351590F060000CD
:100170003E7F415D5D1F1E007C7E13137E7C000070
:10018000417F7F49497F36001C3E63414163220025
:10019000417F7F41637F1C00417F7F495D41630058
:1001A000417F7F491D0103001C3E63415173720072
:1001B0007F7F08087F7F000000417F7F41000000B3
:1001C000307040417F3F0100417F7F081C77630012
:1001D000417F7F41406070007F7F060C067F7F007B
:1001E0007F7F060C187F7F001C3E6341633E1C002E
:1001F000417F7F49090F06001E3F21717F5E00008D
:10020000417F7F19396F460026674D597B320000C8
:1002100003417F7F410300007F7F40407F7F0000DC
:100220001F3F60603F1F00007F7F3018307F7F00DE
:1002300063771C081C776300074F78784F0700002E
:100240006773594D47637100007F7F414100000093
:100250000103060C183060000041417F7F00000060
:10026000080C0603060C0800808080808080808057
:100270000000030704000000207454543C78400040
:10028000013F7F44447C3800387C44446C280000A3
:10029000307848493F7F4000387C54545C18000057
:1002A000487E7F490302000098BCA4A4F87C0400A7
:1002B000417F7F08047C780000447D7D4000000081
:1002C00040C484FD7D000000417F7F10386C4400F5
:1002D00000417F7F400000007C7C0C180C7C780083
:1002E0007C7C04047C780000387C44447C3800002A
:1002F00084FCF8A4243C1800183C24A4F8FC8400D6
:10030000447C78441C180000485C54547424000059
:1003100000043E7F442400003C7C40403C7C400084
:100320001C3C60603C1C00003C7C6030607C3C00FD
:10033000446C3810386C44009CBCA0A0FC7C0000CD
:100340004C64745C4C64000008083E774141000036
:1003500000000077770000004141773E0808000068
:1003600002030103020301001818187E3C18000064
:1003700011241FBECFEFD4E0DEBFCDBF11E0A0E05F
:10038000B1E0E4EDFAE102C005900D92AE3FB10795
:10039000D9F722E0AEEFB1E001C01D92A830B2075C
:1003A000E1F70E94DF030C94680D0C94000081B308
:1003B000806281BB82E090E09BBD8ABD8FB5806486
:1003C0008FBD8EB581608EBD8EB588608EBD08955F
:1003D000CF93DF931F92CDB7DEB7AC01109200141C
:1003E00081E28A95F1F720E030E005C09091001499
:1003F00099832F5F3F4F42175307C4F789810F90AE
:10040000DF91CF910895CF92DF92EF92FF920F93F9
:100410001F93CF93DF93C82E7B01D42EC0E0D0E092
:100420000AC087010C0F1D1F8C2D90E00E94E8016F
:10043000F801808321968D2D90E08C179D078CF715
:10044000C701DF91CF911F910F91FF90EF90DF9047
:10045000CF9008958BB780648BBF85B7826085BFCE
:1004600008950E944F041F928F938AE091E09F931A
:100470008F930E94670A0F900F900F900F9008952E
:100480001F920F920FB60F9211242F933F934F9309
:100490005F936F937F938F939F93AF93BF93EF93EC
:1004A000FF930E943102FF91EF91BF91AF919F9115
:1004B0008F917F916F915F914F913F912F910F900D
:1004C0000FBE0F901F901895EF92FF920F931F93FE
:1004D000CF93DF938C017B0188E290E00E94250896
:1004E000EC010097B1F0F80101900020E9F7319795
:1004F000E01BF10BB19778F4B8010E94150AFAA23B
:10050000E9A21CA21BA21EA21DA21FA28C2F9D2F1E
:1005100004C09D2F02C080E090E0DF91CF911F9139
:100520000F91FF90EF9008950F931F93CF93DF9358
:10053000FB0194A383A3009771F18B01EC016FA1E0
:10054000611107C082E090E00E9425089EA38DA360
:100550000BC070E06F5F7F4F660F771F8DA19EA16C
:100560000E9446099EA38DA32DA13EA12115310510
:10057000A9F08FA1E82FF0E0EE0FFF1FE20FF31FAD
:1005800011830083F801D4A3C3A38FA18F5F8FA32E
:1005900080E090E005C08FEF9FEF02C08FEF9FEFEC
:1005A000DF91CF911F910F910895CF93DF9360E07A
:1005B00070E080E291E00E946402EC0160E070E093
:1005C00085E291E00E946402BC01CE010E94940287
:1005D00060E070E080E391E00E946402BC01CE0123
:1005E0000E94940260E070E08BE391E00E9464025C
:1005F000BC01CE010E94940260E070E084E491E0CE
:100600000E946402EDA1FEA1BC01848195810E943B
:10061000940260E070E08EE491E00E946402EDA13B
:10062000FEA1BC01848195810E949402CE01DF91DC
:10063000CF910895FF920F931F93CF93DF938C0177
:10064000F62E0E94CA05C0E0D0E01DC060E08C2FED
:100650000E94A7058F2D0F2C000C990BC817D907E6
:1006600019F48FE70E94E105D8019596ED91FC9170
:100670009697CE01880F991FE80FF91F808191810D
:100680000E9400062196F80187A190E0C817D907BB
:10069000ECF2DF91CF911F910F91FF900895CF92CF
:1006A000DF92EF92FF921F93CF93DF93CDB7DEB728
:1006B000182FCDB6DEB68DB79EB7811B91090FB648
:1006C000F8949EBF0FBE8DBF01967C01412FBC01E7
:1006D00081E00E940302612FC7010E944106282F7A
:1006E00030E030930901209308010FB6F894DEBE84
:1006F0000FBECDBEDF91CF911F91FF90EF90DF90A5
:10070000CF900895CF92DF92EF92FF921F93CF93F5
:10071000DF93CDB7DEB7182FCDB6DEB68DB79EB757
:10072000811B91090FB6F8949EBF0FBE8DBF019635
:100730007C01412FBC0181E00E940302612FC701AF
:100740000E944106282F30E03093070120930601D4
:100750000FB6F894DEBE0FBECDBEDF91CF911F91D4
:10076000FF90EF90DF90CF900895CF93C82F88E54A
:1007700091E09F938F930E94670A8C2F0E944F03F2
:100780008C2F0E948203809107018F938091060134
:100790008F93809109018F93809108018F9386E751
:1007A00091E09F938F930E94670A8DB79EB708963A
:1007B0000FB6F8949EBF0FBE8DBFCF9108958FEFF7
:1007C0009FE20197F1F700C000006FE170E080E068
:1007D00090E00E942C060E9457050E94D7010E94BB
:1007E0002F050E942A02789488EC0E94B5030E948B
:1007F00061058FEF9FE20197F1F700C000000E94B2
:10080000CA058FEF9FE20197F1F700C000000E9438
:10081000D50260E00E941A0360E185E70E940F059F
:100820001F9285E78F9383E991E09F938F930E94B6
:10083000670A0F900F900F900F90EECF88B38F7EC6
:1008400088BB089588B3806188BB0895CF93C82F73
:100850000E941E048C2F0E9419060E941F06C82F9A
:100860000E9422048C2FCF910895CF93C82F0E940D
:100870001E048C2F0E9419060E9422048C2FCF91F7
:100880000895CF930E941E0480EA0E9419060E94D8
:100890001F06C82F0E9422048C2FCF910895CF935A
:1008A0000E944104C82FC17080FD09C087EA91E011
:1008B0009F938F930E94670A0F900F9004C082E964
:1008C0000E942604C82F8C2FCF910895CF93C82F54
:1008D0000E941E0483E00E9419068C2F0E941906B4
:1008E0000E941F06C82F0E9422048C2FCF910895CA
:1008F0001F93CF93DF93182FD62FC42F0E941E046F
:10090000812F0E946604C823CD17A1F01F928F93F8
:100910001F92DF938EEB91E09F938F930E94670A63
:100920000E9422040F900F900F900F900F900F9045
:1009300081E003C00E94220480E0DF91CF911F91EB
:1009400008951F93CF93DF93C82FD62F142F0E94A3
:100950001E0485E00E9419068C2F0E941906812F23
:100960000E9419068D2F0E9419060E942204412F11
:100970006D2F8C2F0E947804882349F087ED91E039
:100980009F938F930E94670A0F900F9081E0DF91F1
:10099000CF911F910895CF93DF93C82FD62F0E9438
:1009A0001E0482E00E9419068C2F0E9419068D2FCA
:1009B0000E9419060E9422044FEF6D2F8C2F0E9477
:1009C0007804882349F087ED91E09F938F930E94EC
:1009D000670A0F900F9081E0DF91CF910895CF9338
:1009E000DF93C82FD62F0E941E0480E40E941906B0
:1009F0008D2F0E9419060E9422040E941E0481E489
:100A00000E9419068C2F0E9419060E94220460E0A1
:100A100082E30E94CB0480E0DF91CF9108950E9491
:100A2000EF0461E085E30E94CB0481E80E94350475
:100A30000E94410482FDFCCF80E008950E942204C0
:100A40000E941E0480EC0E94190683EF91E001973A
:100A5000F1F700C000000E94220481E008950E9486
:100A60000D060E941E0540EE60E88EE00E947804AC
:100A700060E085E30E94CB0460E085E40E94CB0443
:100A800060E085E50E94CB0460E080E60E94CB0434
:100A900060E080E70E94CB0461E08BE20E94CB041F
:100AA00040EE60E48FE00E94A10480E0089585B7E5
:100AB000806885BF80B7886080BF089580930010EC
:100AC00008958EEA0E945E0581EA0E945E058AED25
:100AD0000E945E0582E10E945E0588EC0E945E0530
:100AE00088EA0E945E058FE30E945E0585ED0E9404
:100AF0005E0580E80E945E0581E80E945E0580E553
:100B00000E945E0589ED0E945E0581E20E945E05FD
:100B100080E20E945E0582E00E945E058BED0E94ED
:100B20005E0580E30E945E058DEA0E945E0580E01E
:100B30000E945E0584EA0E945E0586EA0E945E05C8
:100B40008FEA0E945E050895809300120895CF9366
:100B5000C62F80550E945E058C2F8F700E945E0507
:100B60008C2F82958F70805F0E945E05CF910895D3
:100B7000CF93DF9360E00E94A705C0E0D0E004C0FF
:100B800080E00E94A4052196C038D105CCF3DF9106
:100B9000CF910895CF93DF9360E080E00E94A70596
:100BA000C0E0D0E004C08C2F0E94B8052196C83068
:100BB000D105CCF360E080E00E94A705DF91CF91E2
:100BC00008951F93CF93DF9310EE180FC0E0D0E08D
:100BD00010C0E12FF0E0EE0FFF1FEE0FFF1FEE0F32
:100BE000FF1FEC0FFD1FE059FF4F84910E94A405E9
:100BF0002196C830D1056CF3DF91CF911F910895F4
:100C0000CF93DF93EC0103C021960E94E105888118
:100C10008111FACFDF91CF91089587B3806187BBAF
:100C200087B3806A87BB8DB18C7F8DB981E58DB923
:100C30000895F8948FB9779BFECF7894089585E551
:100C40000E9419068FB108955D9BFECF8CB908955F
:100C50005F9BFECF8CB108950F931F93072F182F22
:100C6000292F332700BD69B988E18AB986E880BD9C
:100C700068E276E084E296E00E941C0A1F910F91E0
:100C80000895BF92CF92DF92EF92FF920F931F933E
:100C9000CF93DF938C01B62EC0E0D0E0C12CD12CD5
:100CA000760112C0F801EC0FFD1F608170E080E05A
:100CB00090E00E9499079B01AC01C701B6010E9418
:100CC00083066B017C0121968B2D90E08C179D078C
:100CD0004CF76B2D70E080E090E00E9497079B013D
:100CE000AC01C701B6010E94EF060E946107862F82
:100CF000DF91CF911F910F91FF90EF90DF90CF90F8
:100D0000BF9008955058BB27AA270E949A060C94BA
:100D1000EB070E94DD0738F00E94E40720F039F469
:100D20009F3F19F426F40C94DA070EF4E095E7FBE4
:100D30000C94D407E92F0E94FC0758F3BA176207F6
:100D400073078407950720F079F4A6F50C941E0824
:100D50000EF4E0950B2EBA2FA02D0B01B9019001D6
:100D60000C01CA01A0011124FF27591B99F0593F1A
:100D700050F4503E68F11A16F040A22F232F342F62
:100D80004427585FF3CF469537952795A795F040B0
:100D90005395C9F77EF41F16BA0B620B730B840BC5
:100DA000BAF09150A1F0FF0FBB1F661F771F881F7D
:100DB000C2F70EC0BA0F621F731F841F48F48795D5
:100DC00077956795B795F7959E3F08F0B0CF9395C7
:100DD000880F08F09927EE0F9795879508950E9440
:100DE00003070C94EB070E94E40758F00E94DD070C
:100DF00040F029F45F3F29F00C94D40751110C9472
:100E00001F080C94DA070E94FC0768F39923B1F3DA
:100E1000552391F3951B550BBB27AA276217730720
:100E2000840738F09F5F5F4F220F331F441FAA1FB4
:100E3000A9F335D00E2E3AF0E0E832D09150504070
:100E4000E695001CCAF72BD0FE2F29D0660F771F1E
:100E5000881FBB1F261737074807AB07B0E809F004
:100E6000BB0B802DBF01FF2793585F4F3AF09E3F89
:100E7000510578F00C94D4070C941F085F3FE4F3FD
:100E8000983ED4F3869577956795B795F7959F5FCC
:100E9000C9F7880F911D9695879597F90895E1E018
:100EA000660F771F881FBB1F621773078407BA0777
:100EB00020F0621B730B840BBA0BEE1F88F7E095D2
:100EC00008950E9468076894B1110C941F08089552
:100ED0000E94040888F09F5798F0B92F9927B751BE
:100EE000B0F0E1F0660F771F881F991F1AF0BA95CE
:100EF000C9F714C0B13091F00E941E08B1E0089506
:100F00000C941E08672F782F8827B85F39F0B93FF7
:100F1000CCF3869577956795B395D9F73EF4909580
:100F20008095709561957F4F8F4F9F4F0895E894FE
:100F300009C097FB3EF490958095709561957F4F21
:100F40008F4F9F4F9923A9F0F92F96E9BB279395CF
:100F5000F695879577956795B795F111F8CFFAF4DF
:100F6000BB0F11F460FF1BC06F5F7F4F8F4F9F4F10
:100F700016C0882311F096E911C0772321F09EE86E
:100F8000872F762F05C0662371F096E8862F70E0D4
:100F900060E02AF09A95660F771F881FDAF7880FAE
:100FA0009695879597F9089597F99F6780E870E07F
:100FB00060E008959FEF80EC089500240A941616CF
:100FC000170618060906089500240A941216130637
:100FD000140605060895092E0394000C11F48823C5
:100FE00052F0BB0F40F4BF2B11F460FF04C06F5FE1
:100FF0007F4F8F4F9F4F089557FD9058440F551FB7
:1010000059F05F3F71F04795880F97FB991F61F08A
:101010009F3F79F087950895121613061406551F01
:10102000F2CF4695F1DF08C0161617061806991F6D
:10103000F1CF86957105610508940895E894BB2762
:1010400066277727CB0197F908950F931F93CF93C6
:10105000DF938230910510F482E090E0E09100028D
:10106000F091010220E030E0A0E0B0E0309719F10B
:10107000408151810281138148175907C8F08417B4
:10108000950769F4109731F012960C931297139606
:101090001C9327C0009300021093010222C0211567
:1010A000310519F04217530718F49A01BD01EF01F9
:1010B000DF01F801DBCF21153105F9F0281B390BD1
:1010C0002430310580F48A819B816115710521F0FE
:1010D000FB019383828304C09093010280930002FA
:1010E000FE01329644C0FE01E20FF31F81939193FB
:1010F00022503109398328833AC02091FE01309172
:10110000FF01232B41F42091020130910301309320
:10111000FF012093FE012091000130910101211572
:10112000310541F42DB73EB74091040150910501BE
:10113000241B350BE091FE01F091FF01E217F3074C
:10114000A0F42E1B3F0B2817390778F0AC014E5F37
:101150005F4F2417350748F04E0F5F1F5093FF0174
:101160004093FE018193919302C0E0E0F0E0CF0153
:10117000DF91CF911F910F910895CF93DF93009747
:1011800009F481C0FC01329713821282A0910002FF
:10119000B0910102109781F420813181820F931F59
:1011A0002091FE013091FF012817390751F5F09386
:1011B000FF01E093FE0167C0ED0120E030E0CE17B3
:1011C000DF0740F44A815B819E0141155105F1F032
:1011D000EA01F5CFD383C28340815181840F951FEB
:1011E000C817D90759F488819981840F951F0296F1
:1011F000918380838A819B8193838283211531052A
:1012000029F4F0930102E09300023DC0E901FB8361
:10121000EA8349915991C40FD51FEC17FD0761F47A
:1012200080819181840F951F0296E90199838883BB
:10123000828193819B838A83E0E0F0E012968D9116
:101240009C911397009719F0FD01DC01F7CF8D9168
:101250009C9111979D012E5F3F4F820F931F20910C
:10126000FE013091FF012817390769F4309729F4FE
:10127000109201021092000202C013821282B093F7
:10128000FF01A093FE01DF91CF910895A0E0B0E0AF
:10129000ECE4F9E00C94350DEC01009721F4CB015E
:1012A0000E942508B4C0FC01E60FF71F9C012250E4
:1012B0003109E217F30708F4A8C0D9010D911C9178
:1012C000119706171707B0F00530110508F49BC0F9
:1012D000C80104978617970708F495C002501109B2
:1012E000061B170B019311936D937C93CF010E9402
:1012F000BD0889C05B01A01AB10A4C01800E911E85
:10130000A0910002B0910102612C712CE12CF12C12
:10131000109709F446C08D919C911197A815B905B5
:10132000B1F56C0142E0C40ED11CCA14DB0478F1A3
:101330004C018A189B08640142E0C40ED11C12962D
:10134000BC9012971396AC91B5E0CB16D10440F047
:10135000B282A38391828082D9016D937C9309C06C
:101360000E5F1F4F800F911FF90191838083EB2D3A
:10137000FA2FE114F10431F0D7011396FC93EE93A8
:10138000129741C0F0930102E09300023CC068163E
:10139000790608F43C017D0112960D90BC91A02DB8
:1013A000B7CF8091FE019091FF0188169906E1F474
:1013B00066167706C8F480910001909101010097AC
:1013C00041F48DB79EB74091040150910501841BF3
:1013D000950BE817F907C8F4F093FF01E093FE01BD
:1013E000F901718360830FC0CB010E9425087C0145
:1013F000009759F0A801BE010E940C0ACE010E947C
:10140000BD08C70104C0CE0102C080E090E0CDB7A6
:10141000DEB7EEE00C94510DFB01DC0102C001903F
:101420000D9241505040D8F70895FB01DC01019026
:101430000D920020E1F708950F931F93CF93DF9350
:10144000009731F46115710519F480E090E03AC01D
:101450008B01EC016EE070E081E090E00E945E0C98
:10146000FC01892B91F380E883830115110571F04C
:101470001387028781E8838380910202909103029F
:10148000892B21F4F0930302E09302022097C9F024
:10149000D187C08783818260838380910402909189
:1014A0000502892B71F4F0930502E0930402809108
:1014B000060290910702892B21F4F0930702E09332
:1014C0000602CF01DF91CF911F910F910895A0E007
:1014D000B0E0EDE6FAE00C94410DAE014B5F5F4FDA
:1014E000FA0161917191AF0180910402909105021E
:1014F0000E947D0AE2E00C945D0DABE0B0E0E3E811
:10150000FAE00C94310D6C017B018A01FC01178219
:101510001682838181FFCCC1CE0101963C01F60188
:101520009381F70193FD859193FF81917F0188233A
:1015300009F4BAC1853239F493FD859193FF819105
:101540007F01853229F4B60190E00E94970CE7CF25
:10155000912C212C312CFFE1F315D8F08B3279F04E
:1015600038F4803279F08332A1F4232D20611DC03C
:101570008D3261F0803369F4232D216016C0832DF4
:101580008260382EE32DE4603E2E2AC0F32DF860F1
:101590001DC037FC2DC020ED280F2A3040F08E32C0
:1015A000B9F436FC81C1232D2064322E19C036FED9
:1015B00006C08AE0989E200D1124922E11C0EAE008
:1015C0002E9E200D1124222EF32DF0623F2E08C0F6
:1015D0008C3621F4832D8068382E02C0883641F481
:1015E000F70193FD859193FF81917F018111B3CF25
:1015F000982F9F7D9554933028F40C5F1F4F9FE3E5
:1016000099830DC0833631F0833771F0833509F04B
:1016100059C021C0F801808189830E5F1F4F882443
:101620008394912C530113C02801F2E04F0E511CFA
:10163000F801A080B18036FE03C0692D70E002C0C1
:101640006FEF7FEFC5010E948C0C4C018201F32DDE
:10165000FF773F2E16C0280122E0420E511CF801F0
:10166000A080B18036FE03C0692D70E002C06FEF2C
:101670007FEFC5010E947A0C4C01F32DF0683F2EDC
:10168000820133FC1BC0822D90E088169906B0F4CD
:10169000B60180E290E00E94970C2A94F4CFF50105
:1016A00037FC859137FE81915F01B60190E00E9481
:1016B000970C21102A9421E0821A91088114910438
:1016C00071F7E8C0843611F0893641F5F80137FE2C
:1016D00007C060817181828193810C5F1F4F08C0B8
:1016E00060817181072E000C880B990B0E5F1F4FD4
:1016F000F32DFF763F2E97FF09C09095809570954A
:1017000061957F4F8F4F9F4FF0683F2E2AE030E06A
:10171000A3010E94D30C882E861845C0853731F46A
:10172000232D2F7EB22E2AE030E025C0932D997F05
:10173000B92E8F36C1F018F4883579F0B5C08037EE
:1017400019F0883721F0B0C0E92FE061BE2EB4FE59
:101750000DC0FB2DF460BF2E09C034FE0AC0292F36
:101760002660B22E06C028E030E005C020E130E05F
:1017700002C020E132E0F801B7FE07C0608171814C
:10178000828193810C5F1F4F06C06081718180E070
:1017900090E00E5F1F4FA3010E94D30C882E861885
:1017A000FB2DFF773F2E36FE0DC0232D2E7FA22E60
:1017B000891458F434FE0BC032FC09C0832D8E7E90
:1017C000A82E05C0B82CA32C03C0B82C01C0B92C7E
:1017D000A4FE0FC0FE01E80DF11D8081803321F4CD
:1017E0009A2D997EA92E09C0A2FE06C0B394B39487
:1017F00004C08A2D867809F0B394A3FC11C0A0FE22
:1018000006C0B21488F4280C922C9B180EC0B21497
:1018100060F4B60180E290E00E94970CB394F7CF99
:10182000B21418F42B1802C0982C212CA4FE10C05E
:10183000B60180E390E00E94970CA2FE17C0A1FCC5
:1018400003C088E790E002C088E590E0B6010CC0D4
:101850008A2D867859F0A1FE02C08BE201C080E299
:10186000A7FC8DE2B60190E00E94970C891438F431
:10187000B60180E390E00E94970C9A94F7CF8A9487
:10188000F301E80DF11D8081B60190E00E94970CF4
:101890008110F5CF222009F442CEB60180E290E01B
:1018A0000E94970C2A94F6CFF6018681978102C098
:1018B0008FEF9FEF2B96E2E10C944D0D0F931F934A
:1018C000CF93DF93869F8001879F100D969F100D09
:1018D0001124C8010E942508EC01009729F0A801F5
:1018E00060E070E00E94850CCE01DF91CF911F91E6
:1018F0000F910895FC010590615070400110D8F7D8
:10190000809590958E0F9F1F0895DC0101C06D9307
:1019100041505040E0F70895FC0161507040019043
:101920000110D8F7809590958E0F9F1F08950F9303
:101930001F93CF93DF93FB01238121FD03C08FEF22
:101940009FEF2CC022FF16C046815781248135812C
:101950004217530744F4A081B1819D012F5F3F4F8F
:10196000318320838C93268137812F5F3F4F3783CC
:10197000268314C08B01EC01FB010084F185E02D6E
:101980000995892BE1F6D80116968D919C911797B0
:10199000019617969C938E931697CE01DF91CF9167
:1019A0001F910F910895FA01AA27283051F1203193
:1019B00081F1E8946F936E7F6E5F7F4F8F4F9F4FE3
:1019C000AF4FB1E03ED0B4E03CD0670F781F891F25
:1019D0009A1FA11D680F791F8A1F911DA11D6A0FF3
:1019E000711D811D911DA11D20D009F468943F91A6
:1019F0002AE0269F11243019305D3193DEF6CF01A5
:101A00000895462F4770405D4193B3E00FD0C9F76A
:101A1000F6CF462F4F70405D4A3318F0495D31FDD7
:101A20004052419302D0A9F7EACFB4E0A69597952A
:101A3000879577956795BA95C9F700976105710500
:101A400008959B01AC010A2E06945795479537954A
:101A50002795BA95C9F7620F731F841F951FA01DA4
:101A600008952F923F924F925F926F927F928F9242
:101A70009F92AF92BF92CF92DF92EF92FF920F931D
:101A80001F93CF93DF93CDB7DEB7CA1BDB0B0FB627
:101A9000F894DEBF0FBECDBF09942A8839884888E4
:101AA0005F846E847D848C849B84AA84B984C8847A
:101AB000DF80EE80FD800C811B81AA81B981CE0F71
:101AC000D11D0FB6F894DEBF0FBECDBFED01089556
:041AD000F894FFCFB8
:101AD4000000080220007F007F0043414E20496E31
:101AE400746572727570743A20202563200A0D00A3
:101AF400526F6F740053746172742047616D650096
:101B0400486967682053636F72650053657474692C
:101B14006E67730043616C69627261746500446549
:101B240062756767696E670043616C6962726174AC
:101B3400696E67204A6F79737469636B2063656E9D
:101B44007465720A0D00582043656E7465723A20FC
:101B540025690A0D592043656E7465723A2025691A
:101B64000A0D0043414E205472616E736D69743ADC
:101B7400202563200A0D0052656365697665206639
:101B84006C6167206E6F74207365740A0D0045786C
:101B94007065637465643A2025752C205265616410
:101BA4003A2025750A0D004552523A20556E657843
:101BB4007065637465642076616C7565207768650B
:0E1BC4006E20766572696679696E670A0D009B
:00000001FF
