:100000000C9434000C9446000C9446000C9446006A
:100010000C9446000C9446000C9446000C94460048
:100020000C9446000C9446000C9446000C94460038
:100030000C9446000C9446000C9446000C94460028
:100040000C9446000C9446000C9446000C94460018
:100050000C9446000C9446000C9446000C94460008
:100060000C9446000C94460011241FBECFEFD8E03C
:10007000DEBFCDBF21E0A0E0B1E001C01D92AB30FA
:10008000B207E1F70E9448000C94A2010C94000012
:10009000259A2D9A2FEF89E698E1215080409040D3
:1000A000E1F700C000002D982FEF89E698E121507C
:1000B00080409040E1F700C00000EBCF8AE184B9B6
:1000C000249882E58CBD08958EBD0DB407FEFDCF4A
:1000D000089585E50E9464008EB5089529980895D5
:1000E000299A08951F93CF93DF93182FD62FC42FEB
:1000F0000E946E0085E00E946400812F0E946400CF
:100100008D2F0E9464008C2F0E9464000E9470005A
:1001100080E0DF91CF911F910895CF93C82F0E9467
:100120006E0080EA0E9464000E946900C8230E9459
:1001300070008C2FCF910895CF93DF93D82FC62FC7
:100140000E946E0082E00E9464008D2F0E94640075
:100150008C2F0E9464000E94700080E0DF91CF919C
:100160000895CF92DF92EF92FF921F93CF93DF9388
:10017000C82FD92F82E00E948D00182F882351F0BC
:1001800011E0812FDF91CF911F91FF90EF90DF90D1
:10019000CF9008958A81893040F00E946E0087E8F0
:1001A0000E9464000E947000ECCF6881798176958E
:1001B0006795769567957695679581E30E949C0093
:1001C00068816295660F607E82E30E949C006A816E
:1001D00085E30E949C008A818823F9F26E0183E006
:1001E000C80ED11CF12CE12CF60161916F0186E360
:1001F0008E0D0E949C00FFEFEF1AFF0A8A818E1578
:100200001F0409F08CF7C9CFCF93C82F0E946E004E
:1002100083E00E9464008C2F0E9464000E946900A9
:10022000C82F0E9470008C2FCF9108950E945E000D
:100230000E946E0080EC0E9464000E94700089EFB2
:1002400090E00197F1F700C000008EE00E940401E9
:10025000807E803811F081E0089563E088E20E949A
:100260009C006EE989E20E949C0063EC8AE20E9495
:100270009C0040E66FE680E60E94720060E080E746
:100280000E949C0048E060EE8FE00E9472004FEFF9
:1002900063E08BE20E94720080E00895EF92FF928B
:1002A0000F931F93CF93DF93082F192F81E00E94A4
:1002B0008D00811108C081E0DF91CF911F910F91D6
:1002C000FF90EF90089582E60E9404018295869542
:1002D000877090E0F8019183808381E60E94040199
:1002E00090E0880F991F880F991F880F991FF801B8
:1002F00020813181822B932B9183808385E60E941C
:100300000401F80182838823B9F27801F3E0EF0E4B
:10031000F11CD0E0C0E08C2F8A590E940401F70143
:1003200081937F012196F80182818C171D0609F0C7
:1003300094F780E0C1CF0E94B10080E0089580E092
:0803400091E00895F894FFCF4D
:00000001FF
