:100000000C9434000C9446000C9446000C9446006A
:100010000C9446000C9446000C9446000C94460048
:100020000C9446000C9446000C9446000C94460038
:100030000C9446000C9446000C9446000C94460028
:100040000C9446000C9446000C9446000C94460018
:100050000C9446000C9446000C9446000C94460008
:100060000C9446000C94460011241FBECFEFD8E03C
:10007000DEBFCDBF21E0A0E0B1E001C01D92A631FE
:10008000B207E1F70E9448000C94B2010C94000002
:100090000E942601E0E0F1E089E690E09183808310
:1000A00081E082838BE68383259A2D9A2FEF83EC60
:1000B00099E0215080409040E1F700C000002D9869
:1000C00080E091E00E94AB012FEF83EC99E021509A
:1000D00080409040E1F700C00000E7CF84B18C621F
:1000E00084B983E58CBD08958EBD0DB407FEFDCFA8
:1000F000089585E50E9474008EB508952C980895A2
:100100002C9A08951F93CF93DF93182FD62FC42FC7
:100110000E947E0085E00E947400812F0E9474007E
:100120008D2F0E9474008C2F0E9474000E9480000A
:1001300080E0DF91CF911F910895CF93C82F0E9447
:100140007E0080EA0E9474000E947900C8230E9409
:1001500080008C2FCF910895CF93DF93D82FC62F97
:100160000E947E0082E00E9474008D2F0E94740025
:100170008C2F0E9474000E94800080E0DF91CF915C
:100180000895CF92DF92EF92FF921F93CF93DF9368
:10019000C82FD92F82E00E949D00182F882351F08C
:1001A00011E0812FDF91CF911F91FF90EF90DF90B1
:1001B000CF9008958A81893040F00E947E0087E8C0
:1001C0000E9474000E948000ECCF6881798176954E
:1001D0006795769567957695679581E30E94AC0063
:1001E00068816295660F607E82E30E94AC006A813E
:1001F00085E30E94AC008A818823F9F26E0183E0D6
:10020000C80ED11CF12CE12CF60161916F0186E33F
:100210008E0D0E94AC00FFEFEF1AFF0A8A818E1547
:100220001F0409F08CF7C9CFCF93C82F0E947E001E
:1002300083E00E9474008C2F0E9474000E94790059
:10024000C82F0E9480008C2FCF9108950E946E00CD
:100250000E947E0080EC0E9474000E94800089EF62
:1002600090E00197F1F700C000008EE00E941401B9
:10027000807E803811F081E0089563E088E20E947A
:10028000AC006EE989E20E94AC0063EC8AE20E9455
:10029000AC0040E66FE680E60E94820060E080E706
:1002A0000E94AC0048E060EE8FE00E9482004FEFB9
:1002B00063E08BE20E94820080E00895EF92FF925B
:1002C0000F931F93CF93DF93082F192F81E00E9484
:1002D0009D00811108C081E0DF91CF911F910F91A6
:1002E000FF90EF90089582E60E9414018295869512
:1002F000877090E0F8019183808381E60E94140169
:1003000090E0880F991F880F991F880F991FF80197
:1003100020813181822B932B9183808385E60E94FB
:100320001401F80182838823B9F27801F3E0EF0E1B
:10033000F11CD0E0C0E08C2F8A590E941401F70113
:1003400081937F012196F80182818C171D0609F0A7
:1003500094F780E0C1CF0E94C10080E008958BE057
:0803600091E00895F894FFCF2D
:00000001FF
